{
	"contracts/DelegateCall.sol": {
		"B": {
			"abi": [
				{
					"inputs": [],
					"name": "b",
					"outputs": [
						{
							"internalType": "uint256",
							"name": "",
							"type": "uint256"
						}
					],
					"stateMutability": "view",
					"type": "function"
				},
				{
					"inputs": [
						{
							"internalType": "address",
							"name": "to",
							"type": "address"
						},
						{
							"internalType": "enum B.Operation",
							"name": "operation",
							"type": "uint8"
						}
					],
					"name": "setA",
					"outputs": [
						{
							"internalType": "bool",
							"name": "success",
							"type": "bool"
						}
					],
					"stateMutability": "nonpayable",
					"type": "function"
				},
				{
					"inputs": [],
					"name": "setB",
					"outputs": [],
					"stateMutability": "nonpayable",
					"type": "function"
				}
			],
			"devdoc": {
				"kind": "dev",
				"methods": {},
				"version": 1
			},
			"evm": {
				"assembly": "    /* \"contracts/DelegateCall.sol\":144:1233  contract B {... */\n  mstore(0x40, 0x80)\n  callvalue\n  dup1\n  iszero\n  tag_1\n  jumpi\n  0x00\n  dup1\n  revert\ntag_1:\n  pop\n  dataSize(sub_0)\n  dup1\n  dataOffset(sub_0)\n  0x00\n  codecopy\n  0x00\n  return\nstop\n\nsub_0: assembly {\n        /* \"contracts/DelegateCall.sol\":144:1233  contract B {... */\n      mstore(0x40, 0x80)\n      callvalue\n      dup1\n      iszero\n      tag_1\n      jumpi\n      0x00\n      dup1\n      revert\n    tag_1:\n      pop\n      jumpi(tag_2, lt(calldatasize, 0x04))\n      shr(0xe0, calldataload(0x00))\n      dup1\n      0x4df7e3d0\n      eq\n      tag_3\n      jumpi\n      dup1\n      0xb4994b41\n      eq\n      tag_4\n      jumpi\n      dup1\n      0xd1f4ba82\n      eq\n      tag_5\n      jumpi\n    tag_2:\n      0x00\n      dup1\n      revert\n        /* \"contracts/DelegateCall.sol\":161:174  uint public b */\n    tag_3:\n      tag_6\n      tag_7\n      jump\t// in\n    tag_6:\n      mload(0x40)\n      tag_8\n      swap2\n      swap1\n      tag_9\n      jump\t// in\n    tag_8:\n      mload(0x40)\n      dup1\n      swap2\n      sub\n      swap1\n      return\n        /* \"contracts/DelegateCall.sol\":460:1230  function setA(address to, Operation operation) public returns (bool success) {... */\n    tag_4:\n      tag_10\n      0x04\n      dup1\n      calldatasize\n      sub\n      dup2\n      add\n      swap1\n      tag_11\n      swap2\n      swap1\n      tag_12\n      jump\t// in\n    tag_11:\n      tag_13\n      jump\t// in\n    tag_10:\n      mload(0x40)\n      tag_14\n      swap2\n      swap1\n      tag_15\n      jump\t// in\n    tag_14:\n      mload(0x40)\n      dup1\n      swap2\n      sub\n      swap1\n      return\n        /* \"contracts/DelegateCall.sol\":180:225  function setB() public {... */\n    tag_5:\n      tag_16\n      tag_17\n      jump\t// in\n    tag_16:\n      stop\n        /* \"contracts/DelegateCall.sol\":161:174  uint public b */\n    tag_7:\n      sload(0x00)\n      dup2\n      jump\t// out\n        /* \"contracts/DelegateCall.sol\":460:1230  function setA(address to, Operation operation) public returns (bool success) {... */\n    tag_13:\n        /* \"contracts/DelegateCall.sol\":523:535  bool success */\n      0x00\n        /* \"contracts/DelegateCall.sol\":547:562  bytes4 selector */\n      dup1\n        /* \"contracts/DelegateCall.sol\":572:591  keccak256(\"setA()\") */\n      0x1fc376f71dc37e414fc4d8518ee6c91a6ca2b21feab4aa356663b9341affb5d5\n        /* \"contracts/DelegateCall.sol\":547:592  bytes4 selector = bytes4(keccak256(\"setA()\")) */\n      swap1\n      pop\n        /* \"contracts/DelegateCall.sol\":637:654  bytes memory data */\n      0x00\n        /* \"contracts/DelegateCall.sol\":680:688  selector */\n      dup2\n        /* \"contracts/DelegateCall.sol\":657:689  abi.encodeWithSelector(selector) */\n      add(0x24, mload(0x40))\n      mload(0x40)\n      0x20\n      dup2\n      dup4\n      sub\n      sub\n      dup2\n      mstore\n      swap1\n      0x40\n      mstore\n      swap1\n      not(0xffffffffffffffffffffffffffffffffffffffffffffffffffffffff)\n      and\n      0x20\n      dup3\n      add\n      dup1\n      mload\n      0xffffffffffffffffffffffffffffffffffffffffffffffffffffffff\n      dup4\n      dup2\n      dup4\n      and\n      or\n      dup4\n      mstore\n      pop\n      pop\n      pop\n      pop\n        /* \"contracts/DelegateCall.sol\":637:689  bytes memory data = abi.encodeWithSelector(selector) */\n      swap1\n      pop\n        /* \"contracts/DelegateCall.sol\":746:768  Operation.DelegateCall */\n      0x00\n        /* \"contracts/DelegateCall.sol\":733:768  operation == Operation.DelegateCall */\n      0x01\n      dup2\n      gt\n      iszero\n      tag_19\n      jumpi\n      tag_20\n      tag_21\n      jump\t// in\n    tag_20:\n    tag_19:\n        /* \"contracts/DelegateCall.sol\":733:742  operation */\n      dup5\n        /* \"contracts/DelegateCall.sol\":733:768  operation == Operation.DelegateCall */\n      0x01\n      dup2\n      gt\n      iszero\n      tag_22\n      jumpi\n      tag_23\n      tag_21\n      jump\t// in\n    tag_23:\n    tag_22:\n      sub\n        /* \"contracts/DelegateCall.sol\":730:1224  if(operation == Operation.DelegateCall) {... */\n      tag_24\n      jumpi\n        /* \"contracts/DelegateCall.sol\":971:972  0 */\n      0x00\n        /* \"contracts/DelegateCall.sol\":968:969  0 */\n      dup1\n        /* \"contracts/DelegateCall.sol\":961:965  data */\n      dup3\n        /* \"contracts/DelegateCall.sol\":955:966  mload(data) */\n      mload\n        /* \"contracts/DelegateCall.sol\":948:952  0x20 */\n      0x20\n        /* \"contracts/DelegateCall.sol\":942:946  data */\n      dup5\n        /* \"contracts/DelegateCall.sol\":938:953  add(data, 0x20) */\n      add\n        /* \"contracts/DelegateCall.sol\":934:936  to */\n      dup9\n        /* \"contracts/DelegateCall.sol\":927:932  gas() */\n      gas\n        /* \"contracts/DelegateCall.sol\":914:973  delegatecall(gas(), to, add(data, 0x20), mload(data), 0, 0) */\n      delegatecall\n        /* \"contracts/DelegateCall.sol\":903:973  success := delegatecall(gas(), to, add(data, 0x20), mload(data), 0, 0) */\n      swap3\n      pop\n        /* \"contracts/DelegateCall.sol\":730:1224  if(operation == Operation.DelegateCall) {... */\n      jump(tag_25)\n    tag_24:\n        /* \"contracts/DelegateCall.sol\":1198:1199  0 */\n      0x00\n        /* \"contracts/DelegateCall.sol\":1195:1196  0 */\n      dup1\n        /* \"contracts/DelegateCall.sol\":1188:1192  data */\n      dup3\n        /* \"contracts/DelegateCall.sol\":1182:1193  mload(data) */\n      mload\n        /* \"contracts/DelegateCall.sol\":1175:1179  0x20 */\n      0x20\n        /* \"contracts/DelegateCall.sol\":1169:1173  data */\n      dup5\n        /* \"contracts/DelegateCall.sol\":1165:1180  add(data, 0x20) */\n      add\n        /* \"contracts/DelegateCall.sol\":1162:1163  0 */\n      0x00\n        /* \"contracts/DelegateCall.sol\":1158:1160  to */\n      dup10\n        /* \"contracts/DelegateCall.sol\":1151:1156  gas() */\n      gas\n        /* \"contracts/DelegateCall.sol\":1146:1200  call(gas(), to, 0, add(data, 0x20), mload(data), 0, 0) */\n      call\n        /* \"contracts/DelegateCall.sol\":1135:1200  success := call(gas(), to, 0, add(data, 0x20), mload(data), 0, 0) */\n      swap3\n      pop\n        /* \"contracts/DelegateCall.sol\":730:1224  if(operation == Operation.DelegateCall) {... */\n    tag_25:\n        /* \"contracts/DelegateCall.sol\":537:1230  {... */\n      pop\n      pop\n        /* \"contracts/DelegateCall.sol\":460:1230  function setA(address to, Operation operation) public returns (bool success) {... */\n      swap3\n      swap2\n      pop\n      pop\n      jump\t// out\n        /* \"contracts/DelegateCall.sol\":180:225  function setB() public {... */\n    tag_17:\n        /* \"contracts/DelegateCall.sol\":217:218  3 */\n      0x03\n        /* \"contracts/DelegateCall.sol\":213:214  b */\n      0x00\n        /* \"contracts/DelegateCall.sol\":213:218  b = 3 */\n      dup2\n      swap1\n      sstore\n      pop\n        /* \"contracts/DelegateCall.sol\":180:225  function setB() public {... */\n      jump\t// out\n        /* \"#utility.yul\":7:84   */\n    tag_27:\n        /* \"#utility.yul\":44:51   */\n      0x00\n        /* \"#utility.yul\":73:78   */\n      dup2\n        /* \"#utility.yul\":62:78   */\n      swap1\n      pop\n        /* \"#utility.yul\":7:84   */\n      swap2\n      swap1\n      pop\n      jump\t// out\n        /* \"#utility.yul\":90:208   */\n    tag_28:\n        /* \"#utility.yul\":177:201   */\n      tag_43\n        /* \"#utility.yul\":195:200   */\n      dup2\n        /* \"#utility.yul\":177:201   */\n      tag_27\n      jump\t// in\n    tag_43:\n        /* \"#utility.yul\":172:175   */\n      dup3\n        /* \"#utility.yul\":165:202   */\n      mstore\n        /* \"#utility.yul\":90:208   */\n      pop\n      pop\n      jump\t// out\n        /* \"#utility.yul\":214:436   */\n    tag_9:\n        /* \"#utility.yul\":307:311   */\n      0x00\n        /* \"#utility.yul\":345:347   */\n      0x20\n        /* \"#utility.yul\":334:343   */\n      dup3\n        /* \"#utility.yul\":330:348   */\n      add\n        /* \"#utility.yul\":322:348   */\n      swap1\n      pop\n        /* \"#utility.yul\":358:429   */\n      tag_45\n        /* \"#utility.yul\":426:427   */\n      0x00\n        /* \"#utility.yul\":415:424   */\n      dup4\n        /* \"#utility.yul\":411:428   */\n      add\n        /* \"#utility.yul\":402:408   */\n      dup5\n        /* \"#utility.yul\":358:429   */\n      tag_28\n      jump\t// in\n    tag_45:\n        /* \"#utility.yul\":214:436   */\n      swap3\n      swap2\n      pop\n      pop\n      jump\t// out\n        /* \"#utility.yul\":523:640   */\n    tag_30:\n        /* \"#utility.yul\":632:633   */\n      0x00\n        /* \"#utility.yul\":629:630   */\n      dup1\n        /* \"#utility.yul\":622:634   */\n      revert\n        /* \"#utility.yul\":769:895   */\n    tag_32:\n        /* \"#utility.yul\":806:813   */\n      0x00\n        /* \"#utility.yul\":846:888   */\n      0xffffffffffffffffffffffffffffffffffffffff\n        /* \"#utility.yul\":839:844   */\n      dup3\n        /* \"#utility.yul\":835:889   */\n      and\n        /* \"#utility.yul\":824:889   */\n      swap1\n      pop\n        /* \"#utility.yul\":769:895   */\n      swap2\n      swap1\n      pop\n      jump\t// out\n        /* \"#utility.yul\":901:997   */\n    tag_33:\n        /* \"#utility.yul\":938:945   */\n      0x00\n        /* \"#utility.yul\":967:991   */\n      tag_51\n        /* \"#utility.yul\":985:990   */\n      dup3\n        /* \"#utility.yul\":967:991   */\n      tag_32\n      jump\t// in\n    tag_51:\n        /* \"#utility.yul\":956:991   */\n      swap1\n      pop\n        /* \"#utility.yul\":901:997   */\n      swap2\n      swap1\n      pop\n      jump\t// out\n        /* \"#utility.yul\":1003:1125   */\n    tag_34:\n        /* \"#utility.yul\":1076:1100   */\n      tag_53\n        /* \"#utility.yul\":1094:1099   */\n      dup2\n        /* \"#utility.yul\":1076:1100   */\n      tag_33\n      jump\t// in\n    tag_53:\n        /* \"#utility.yul\":1069:1074   */\n      dup2\n        /* \"#utility.yul\":1066:1101   */\n      eq\n        /* \"#utility.yul\":1056:1119   */\n      tag_54\n      jumpi\n        /* \"#utility.yul\":1115:1116   */\n      0x00\n        /* \"#utility.yul\":1112:1113   */\n      dup1\n        /* \"#utility.yul\":1105:1117   */\n      revert\n        /* \"#utility.yul\":1056:1119   */\n    tag_54:\n        /* \"#utility.yul\":1003:1125   */\n      pop\n      jump\t// out\n        /* \"#utility.yul\":1131:1270   */\n    tag_35:\n        /* \"#utility.yul\":1177:1182   */\n      0x00\n        /* \"#utility.yul\":1215:1221   */\n      dup2\n        /* \"#utility.yul\":1202:1222   */\n      calldataload\n        /* \"#utility.yul\":1193:1222   */\n      swap1\n      pop\n        /* \"#utility.yul\":1231:1264   */\n      tag_56\n        /* \"#utility.yul\":1258:1263   */\n      dup2\n        /* \"#utility.yul\":1231:1264   */\n      tag_34\n      jump\t// in\n    tag_56:\n        /* \"#utility.yul\":1131:1270   */\n      swap3\n      swap2\n      pop\n      pop\n      jump\t// out\n        /* \"#utility.yul\":1276:1387   */\n    tag_36:\n        /* \"#utility.yul\":1361:1362   */\n      0x02\n        /* \"#utility.yul\":1354:1359   */\n      dup2\n        /* \"#utility.yul\":1351:1363   */\n      lt\n        /* \"#utility.yul\":1341:1381   */\n      tag_58\n      jumpi\n        /* \"#utility.yul\":1377:1378   */\n      0x00\n        /* \"#utility.yul\":1374:1375   */\n      dup1\n        /* \"#utility.yul\":1367:1379   */\n      revert\n        /* \"#utility.yul\":1341:1381   */\n    tag_58:\n        /* \"#utility.yul\":1276:1387   */\n      pop\n      jump\t// out\n        /* \"#utility.yul\":1393:1556   */\n    tag_37:\n        /* \"#utility.yul\":1451:1456   */\n      0x00\n        /* \"#utility.yul\":1489:1495   */\n      dup2\n        /* \"#utility.yul\":1476:1496   */\n      calldataload\n        /* \"#utility.yul\":1467:1496   */\n      swap1\n      pop\n        /* \"#utility.yul\":1505:1550   */\n      tag_60\n        /* \"#utility.yul\":1544:1549   */\n      dup2\n        /* \"#utility.yul\":1505:1550   */\n      tag_36\n      jump\t// in\n    tag_60:\n        /* \"#utility.yul\":1393:1556   */\n      swap3\n      swap2\n      pop\n      pop\n      jump\t// out\n        /* \"#utility.yul\":1562:2060   */\n    tag_12:\n        /* \"#utility.yul\":1642:1648   */\n      0x00\n        /* \"#utility.yul\":1650:1656   */\n      dup1\n        /* \"#utility.yul\":1699:1701   */\n      0x40\n        /* \"#utility.yul\":1687:1696   */\n      dup4\n        /* \"#utility.yul\":1678:1685   */\n      dup6\n        /* \"#utility.yul\":1674:1697   */\n      sub\n        /* \"#utility.yul\":1670:1702   */\n      slt\n        /* \"#utility.yul\":1667:1786   */\n      iszero\n      tag_62\n      jumpi\n        /* \"#utility.yul\":1705:1784   */\n      tag_63\n      tag_30\n      jump\t// in\n    tag_63:\n        /* \"#utility.yul\":1667:1786   */\n    tag_62:\n        /* \"#utility.yul\":1825:1826   */\n      0x00\n        /* \"#utility.yul\":1850:1903   */\n      tag_64\n        /* \"#utility.yul\":1895:1902   */\n      dup6\n        /* \"#utility.yul\":1886:1892   */\n      dup3\n        /* \"#utility.yul\":1875:1884   */\n      dup7\n        /* \"#utility.yul\":1871:1893   */\n      add\n        /* \"#utility.yul\":1850:1903   */\n      tag_35\n      jump\t// in\n    tag_64:\n        /* \"#utility.yul\":1840:1903   */\n      swap3\n      pop\n        /* \"#utility.yul\":1796:1913   */\n      pop\n        /* \"#utility.yul\":1952:1954   */\n      0x20\n        /* \"#utility.yul\":1978:2043   */\n      tag_65\n        /* \"#utility.yul\":2035:2042   */\n      dup6\n        /* \"#utility.yul\":2026:2032   */\n      dup3\n        /* \"#utility.yul\":2015:2024   */\n      dup7\n        /* \"#utility.yul\":2011:2033   */\n      add\n        /* \"#utility.yul\":1978:2043   */\n      tag_37\n      jump\t// in\n    tag_65:\n        /* \"#utility.yul\":1968:2043   */\n      swap2\n      pop\n        /* \"#utility.yul\":1923:2053   */\n      pop\n        /* \"#utility.yul\":1562:2060   */\n      swap3\n      pop\n      swap3\n      swap1\n      pop\n      jump\t// out\n        /* \"#utility.yul\":2066:2156   */\n    tag_38:\n        /* \"#utility.yul\":2100:2107   */\n      0x00\n        /* \"#utility.yul\":2143:2148   */\n      dup2\n        /* \"#utility.yul\":2136:2149   */\n      iszero\n        /* \"#utility.yul\":2129:2150   */\n      iszero\n        /* \"#utility.yul\":2118:2150   */\n      swap1\n      pop\n        /* \"#utility.yul\":2066:2156   */\n      swap2\n      swap1\n      pop\n      jump\t// out\n        /* \"#utility.yul\":2162:2271   */\n    tag_39:\n        /* \"#utility.yul\":2243:2264   */\n      tag_68\n        /* \"#utility.yul\":2258:2263   */\n      dup2\n        /* \"#utility.yul\":2243:2264   */\n      tag_38\n      jump\t// in\n    tag_68:\n        /* \"#utility.yul\":2238:2241   */\n      dup3\n        /* \"#utility.yul\":2231:2265   */\n      mstore\n        /* \"#utility.yul\":2162:2271   */\n      pop\n      pop\n      jump\t// out\n        /* \"#utility.yul\":2277:2487   */\n    tag_15:\n        /* \"#utility.yul\":2364:2368   */\n      0x00\n        /* \"#utility.yul\":2402:2404   */\n      0x20\n        /* \"#utility.yul\":2391:2400   */\n      dup3\n        /* \"#utility.yul\":2387:2405   */\n      add\n        /* \"#utility.yul\":2379:2405   */\n      swap1\n      pop\n        /* \"#utility.yul\":2415:2480   */\n      tag_70\n        /* \"#utility.yul\":2477:2478   */\n      0x00\n        /* \"#utility.yul\":2466:2475   */\n      dup4\n        /* \"#utility.yul\":2462:2479   */\n      add\n        /* \"#utility.yul\":2453:2459   */\n      dup5\n        /* \"#utility.yul\":2415:2480   */\n      tag_39\n      jump\t// in\n    tag_70:\n        /* \"#utility.yul\":2277:2487   */\n      swap3\n      swap2\n      pop\n      pop\n      jump\t// out\n        /* \"#utility.yul\":2493:2673   */\n    tag_21:\n        /* \"#utility.yul\":2541:2618   */\n      0x4e487b7100000000000000000000000000000000000000000000000000000000\n        /* \"#utility.yul\":2538:2539   */\n      0x00\n        /* \"#utility.yul\":2531:2619   */\n      mstore\n        /* \"#utility.yul\":2638:2642   */\n      0x21\n        /* \"#utility.yul\":2635:2636   */\n      0x04\n        /* \"#utility.yul\":2628:2643   */\n      mstore\n        /* \"#utility.yul\":2662:2666   */\n      0x24\n        /* \"#utility.yul\":2659:2660   */\n      0x00\n        /* \"#utility.yul\":2652:2667   */\n      revert\n\n    auxdata: 0xa2646970667358221220e0fd5c6122abc5b21b80bb6269a06c3d9b8abe3d6ce96403dc8577071f19287864736f6c634300081a0033\n}\n",
				"bytecode": {
					"linkReferences": {},
					"object": "6080604052348015600e575f80fd5b5061030f8061001c5f395ff3fe608060405234801561000f575f80fd5b506004361061003f575f3560e01c80634df7e3d014610043578063b4994b4114610061578063d1f4ba8214610091575b5f80fd5b61004b61009b565b60405161005891906101a1565b60405180910390f35b61007b6004803603810190610076919061023b565b6100a0565b6040516100889190610293565b60405180910390f35b610099610180565b005b5f5481565b5f807f1fc376f71dc37e414fc4d8518ee6c91a6ca2b21feab4aa356663b9341affb5d590505f81604051602401604051602081830303815290604052907bffffffffffffffffffffffffffffffffffffffffffffffffffffffff19166020820180517bffffffffffffffffffffffffffffffffffffffffffffffffffffffff838183161783525050505090505f600181111561013f5761013e6102ac565b5b846001811115610152576101516102ac565b5b03610169575f80825160208401885af49250610178565b5f808251602084015f895af192505b505092915050565b60035f81905550565b5f819050919050565b61019b81610189565b82525050565b5f6020820190506101b45f830184610192565b92915050565b5f80fd5b5f73ffffffffffffffffffffffffffffffffffffffff82169050919050565b5f6101e7826101be565b9050919050565b6101f7816101dd565b8114610201575f80fd5b50565b5f81359050610212816101ee565b92915050565b60028110610224575f80fd5b50565b5f8135905061023581610218565b92915050565b5f8060408385031215610251576102506101ba565b5b5f61025e85828601610204565b925050602061026f85828601610227565b9150509250929050565b5f8115159050919050565b61028d81610279565b82525050565b5f6020820190506102a65f830184610284565b92915050565b7f4e487b71000000000000000000000000000000000000000000000000000000005f52602160045260245ffdfea2646970667358221220e0fd5c6122abc5b21b80bb6269a06c3d9b8abe3d6ce96403dc8577071f19287864736f6c634300081a0033",
					"opcodes": "PUSH1 0x80 PUSH1 0x40 MSTORE CALLVALUE DUP1 ISZERO PUSH1 0xE JUMPI PUSH0 DUP1 REVERT JUMPDEST POP PUSH2 0x30F DUP1 PUSH2 0x1C PUSH0 CODECOPY PUSH0 RETURN INVALID PUSH1 0x80 PUSH1 0x40 MSTORE CALLVALUE DUP1 ISZERO PUSH2 0xF JUMPI PUSH0 DUP1 REVERT JUMPDEST POP PUSH1 0x4 CALLDATASIZE LT PUSH2 0x3F JUMPI PUSH0 CALLDATALOAD PUSH1 0xE0 SHR DUP1 PUSH4 0x4DF7E3D0 EQ PUSH2 0x43 JUMPI DUP1 PUSH4 0xB4994B41 EQ PUSH2 0x61 JUMPI DUP1 PUSH4 0xD1F4BA82 EQ PUSH2 0x91 JUMPI JUMPDEST PUSH0 DUP1 REVERT JUMPDEST PUSH2 0x4B PUSH2 0x9B JUMP JUMPDEST PUSH1 0x40 MLOAD PUSH2 0x58 SWAP2 SWAP1 PUSH2 0x1A1 JUMP JUMPDEST PUSH1 0x40 MLOAD DUP1 SWAP2 SUB SWAP1 RETURN JUMPDEST PUSH2 0x7B PUSH1 0x4 DUP1 CALLDATASIZE SUB DUP2 ADD SWAP1 PUSH2 0x76 SWAP2 SWAP1 PUSH2 0x23B JUMP JUMPDEST PUSH2 0xA0 JUMP JUMPDEST PUSH1 0x40 MLOAD PUSH2 0x88 SWAP2 SWAP1 PUSH2 0x293 JUMP JUMPDEST PUSH1 0x40 MLOAD DUP1 SWAP2 SUB SWAP1 RETURN JUMPDEST PUSH2 0x99 PUSH2 0x180 JUMP JUMPDEST STOP JUMPDEST PUSH0 SLOAD DUP2 JUMP JUMPDEST PUSH0 DUP1 PUSH32 0x1FC376F71DC37E414FC4D8518EE6C91A6CA2B21FEAB4AA356663B9341AFFB5D5 SWAP1 POP PUSH0 DUP2 PUSH1 0x40 MLOAD PUSH1 0x24 ADD PUSH1 0x40 MLOAD PUSH1 0x20 DUP2 DUP4 SUB SUB DUP2 MSTORE SWAP1 PUSH1 0x40 MSTORE SWAP1 PUSH28 0xFFFFFFFFFFFFFFFFFFFFFFFFFFFFFFFFFFFFFFFFFFFFFFFFFFFFFFFF NOT AND PUSH1 0x20 DUP3 ADD DUP1 MLOAD PUSH28 0xFFFFFFFFFFFFFFFFFFFFFFFFFFFFFFFFFFFFFFFFFFFFFFFFFFFFFFFF DUP4 DUP2 DUP4 AND OR DUP4 MSTORE POP POP POP POP SWAP1 POP PUSH0 PUSH1 0x1 DUP2 GT ISZERO PUSH2 0x13F JUMPI PUSH2 0x13E PUSH2 0x2AC JUMP JUMPDEST JUMPDEST DUP5 PUSH1 0x1 DUP2 GT ISZERO PUSH2 0x152 JUMPI PUSH2 0x151 PUSH2 0x2AC JUMP JUMPDEST JUMPDEST SUB PUSH2 0x169 JUMPI PUSH0 DUP1 DUP3 MLOAD PUSH1 0x20 DUP5 ADD DUP9 GAS DELEGATECALL SWAP3 POP PUSH2 0x178 JUMP JUMPDEST PUSH0 DUP1 DUP3 MLOAD PUSH1 0x20 DUP5 ADD PUSH0 DUP10 GAS CALL SWAP3 POP JUMPDEST POP POP SWAP3 SWAP2 POP POP JUMP JUMPDEST PUSH1 0x3 PUSH0 DUP2 SWAP1 SSTORE POP JUMP JUMPDEST PUSH0 DUP2 SWAP1 POP SWAP2 SWAP1 POP JUMP JUMPDEST PUSH2 0x19B DUP2 PUSH2 0x189 JUMP JUMPDEST DUP3 MSTORE POP POP JUMP JUMPDEST PUSH0 PUSH1 0x20 DUP3 ADD SWAP1 POP PUSH2 0x1B4 PUSH0 DUP4 ADD DUP5 PUSH2 0x192 JUMP JUMPDEST SWAP3 SWAP2 POP POP JUMP JUMPDEST PUSH0 DUP1 REVERT JUMPDEST PUSH0 PUSH20 0xFFFFFFFFFFFFFFFFFFFFFFFFFFFFFFFFFFFFFFFF DUP3 AND SWAP1 POP SWAP2 SWAP1 POP JUMP JUMPDEST PUSH0 PUSH2 0x1E7 DUP3 PUSH2 0x1BE JUMP JUMPDEST SWAP1 POP SWAP2 SWAP1 POP JUMP JUMPDEST PUSH2 0x1F7 DUP2 PUSH2 0x1DD JUMP JUMPDEST DUP2 EQ PUSH2 0x201 JUMPI PUSH0 DUP1 REVERT JUMPDEST POP JUMP JUMPDEST PUSH0 DUP2 CALLDATALOAD SWAP1 POP PUSH2 0x212 DUP2 PUSH2 0x1EE JUMP JUMPDEST SWAP3 SWAP2 POP POP JUMP JUMPDEST PUSH1 0x2 DUP2 LT PUSH2 0x224 JUMPI PUSH0 DUP1 REVERT JUMPDEST POP JUMP JUMPDEST PUSH0 DUP2 CALLDATALOAD SWAP1 POP PUSH2 0x235 DUP2 PUSH2 0x218 JUMP JUMPDEST SWAP3 SWAP2 POP POP JUMP JUMPDEST PUSH0 DUP1 PUSH1 0x40 DUP4 DUP6 SUB SLT ISZERO PUSH2 0x251 JUMPI PUSH2 0x250 PUSH2 0x1BA JUMP JUMPDEST JUMPDEST PUSH0 PUSH2 0x25E DUP6 DUP3 DUP7 ADD PUSH2 0x204 JUMP JUMPDEST SWAP3 POP POP PUSH1 0x20 PUSH2 0x26F DUP6 DUP3 DUP7 ADD PUSH2 0x227 JUMP JUMPDEST SWAP2 POP POP SWAP3 POP SWAP3 SWAP1 POP JUMP JUMPDEST PUSH0 DUP2 ISZERO ISZERO SWAP1 POP SWAP2 SWAP1 POP JUMP JUMPDEST PUSH2 0x28D DUP2 PUSH2 0x279 JUMP JUMPDEST DUP3 MSTORE POP POP JUMP JUMPDEST PUSH0 PUSH1 0x20 DUP3 ADD SWAP1 POP PUSH2 0x2A6 PUSH0 DUP4 ADD DUP5 PUSH2 0x284 JUMP JUMPDEST SWAP3 SWAP2 POP POP JUMP JUMPDEST PUSH32 0x4E487B7100000000000000000000000000000000000000000000000000000000 PUSH0 MSTORE PUSH1 0x21 PUSH1 0x4 MSTORE PUSH1 0x24 PUSH0 REVERT INVALID LOG2 PUSH5 0x6970667358 0x22 SLT KECCAK256 0xE0 REVERT TLOAD PUSH2 0x22AB 0xC5 0xB2 SHL DUP1 0xBB PUSH3 0x69A06C RETURNDATASIZE SWAP12 DUP11 0xBE RETURNDATASIZE PUSH13 0xE96403DC8577071F1928786473 PUSH16 0x6C634300081A00330000000000000000 "
				},
				"gasEstimates": {
					"creation": {
						"codeDepositCost": "156600",
						"executionCost": "200",
						"totalCost": "156800"
					},
					"external": {
						"b()": "2402",
						"setA(address,uint8)": "infinite",
						"setB()": "22278"
					}
				},
				"methodIdentifiers": {
					"b()": "4df7e3d0",
					"setA(address,uint8)": "b4994b41",
					"setB()": "d1f4ba82"
				}
			},
			"storageLayout": {
				"storage": [
					{
						"astId": 14,
						"contract": "contracts/DelegateCall.sol:B",
						"label": "b",
						"offset": 0,
						"slot": "0",
						"type": "t_uint256"
					}
				],
				"types": {
					"t_uint256": {
						"encoding": "inplace",
						"label": "uint256",
						"numberOfBytes": "32"
					}
				}
			},
			"userdoc": {
				"kind": "user",
				"methods": {},
				"version": 1
			}
		}
	}
}